:0600000000000EEF00F00D
:0400080004EF00F011
:100018000CEF00F00DD824D9E7D812D9F2A4FED7F6
:10002800FC0E0F01D76EDA0E0F01D66EF294F3D7DD
:10003800846A080E0F01966E826A020E0F01946E92
:10004800816AC00E0F01936E000E0F01F26E080E4A
:100058000F01D56E630E0F01D76EC00E0F01D66E5D
:10006800640E0001026ED58E49D8ADD8020E0F017C
:10007800F76E870E0F01F66E61D8200E0F01846EA1
:10008800ACD8400E0F01846EA8D8800E0F01846E84
:10009800A4D8846AE86A7D0E0001066E0A0E000183
:1000A800076E050E00010E6E010E0001056E000EB2
:1000B8000001006E010E0001016EC30E0001086E02
:1000C800310E0001096E0A6AC50E00010B6E300E72
:1000D80000010C6E0D6A020E0F01F76E910E0F01F2
:1000E800F66E2CD884CF03F0050E01028B74FC0E3B
:1000F8000F01D76EDA0E0F01D66E12000A0E00013C
:10010800026E6BD8020E0F01F76E800E0F01F66EAD
:1001180008008A6A8A8AF550F00BE83881108A6EDE
:100128008A9A51D88A6A8A8AF5500F0B81108A6E8A
:100138008A9A49D80B00F552ECE112008A98080017
:10014800F55201E10B00F00E8A168A8AF550F00B81
:10015800E83881108A6E8A9AF00E8A168A8AF550D3
:100168000F0B81108A6E8A9A29D88A880B00F5525B
:10017800EAE112008A98F00E8A168A8AEF50F00B8C
:10018800E83881108A6E8A9AF00E8A168A8AEF50A9
:100198000F0B81108A6E8A9A11D88A88EC50EBE18D
:1001A80012000150300F096E00EE08F0E3DF005036
:1001B800300F0C6E00EE0BF0DDDF2DD7410E026E16
:1001C8000206FEE11200F2A4FED7630E0F01D76EFD
:1001D800C00E0F01D66EF2941200F5DF0206FDE1A3
:1001E800640E0001026E120084CFE8FF080B046E53
:1001F8000318031405E11CD812000506F5E01200E7
:100208000150020A07E0020E0024006E0A0A02E00A
:100218000FD81200000E0001006E0150010804E121
:10022800020E0001016E1200010E0001016E1200A3
:10023800010E0001056E04C003F0046AE86A1200AA
:100248000E0601E012008B74050E01020050F32423
:10025800F36A82A402D00E6EA4D764080E6EA1D7EA
:10026800062E12007D0E0001066E072E12000A0EE1
:100278000001076E8D781200333228010C060080C9
:100288004153454E3530363700C050573D312E303A
:04029800306D730052
:020000040030CA
:070000001D036A00B98B919A
:06000800FFC0FFE0FF4015
:00000001FF
