:0600000000000EEF00F00D
:0400080004EF00F011
:100018000CEF00F00ED84BD93ED9FCD8F2A4FED78D
:10002800FC0E0F01D76EEB0E0F01D66E1DD9F294A0
:10003800F2D7846A080E0F01966E826A020E0F01CB
:10004800946E816AC00E0F01936E000E0F01F26E5E
:10005800080E0F01D56E630E0F01D76EC00E0F018B
:10006800D66E640E0001026ED58E4AD8B9D8020E3B
:100078000F01F76ECD0E0F01F66E62D8200E0F013C
:10008800846EB8D8400E0F01846EB4D8800E0F016C
:10009800846EB0D8846AE86A0A0E0001116E7D0E7B
:1000A8000001066E0A0E0001076E050E00010E6EB5
:1000B8000A0E0001056E000E0001006E010E00011F
:1000C800016EC30E0001086E310E0001096E0A6A46
:1000D800C50E00010B6E300E00010C6E0D6A020E8B
:1000E8000F01F76ED70E0F01F66E2AD884CF03F0F2
:1000F8008B74FC0E0F01D76EEB0E0F01D66E12003B
:100108000A0E0001026E76D8020E0F01F76EC60EB7
:100118000F01F66E08008A6A8A8AF550F00BE838F3
:1001280081108A6E8A9A5CD88A6A8A8AF5500F0B7F
:1001380081108A6E8A9A54D80B00F552ECE11200AD
:100148008A980800F55201E10B00F00E8A168A8A97
:10015800F550F00BE83881108A6E8A9AF00E8A16EC
:100168008A8AF5500F0B81108A6E8A9A34D88A8849
:100178000B00F552EAE112008A98F00E8A168A8A74
:10018800EF50F00BE83881108A6E8A9AF00E8A16C2
:100198008A8AEF500F0B81108A6E8A9A1CD88A8837
:1001A800EC50EBE112000150300F096E00EE08F040
:1001B800E3DF0050300F0C6E00EE0BF0DDDF6BD884
:1001C80029D8F2A4FED7FC0E0F01D76EE00E0F015E
:1001D800D66EF2941200410E116E1106FEE1120065
:1001E800F2A4FED7630E0F01D76EC00E0F01D66EB4
:1001F800F2941200F5DF0206FDE1640E0001026EC2
:10020800120084CFE8FF080B046E0318031405E1FD
:1002180023D812000506F5E01200010E00010F6E4A
:100228000150020A10E0020E0024006E0A0A02E0E1
:1002380013D81200000E0001006E020E0001016EBC
:10024800E86A0AD81200000E0001006E010E0001D3
:10025800016EE86A01D812000A0E0001056E04C09A
:1002680003F0046AE86A12000E0601E012008B74BB
:10027800050E01020050E840F324F36A82A405D079
:100288000E6E000E0001106E120064080E6E010E54
:100298000001106E1200062E12007D0E0001066E7F
:1002A800072E12000A0E0001076E8D7812000FA0AB
:1002B800120010A01200000E00010F6E74D7333226
:1002C80028010C0600804153454E3530363700C0B2
:0A02D80050573D312E30306D730099
:020000040030CA
:070000001D036A00B98B919A
:06000800FFC0FFE0FF4015
:00000001FF
