:0600000000000EEF00F00D
:04000800BEEF00F057
:10001800BFEF00F001D8FFD7836A956A826A946AB5
:10002800816AC00E0F01936EF26A080E0F01D56E39
:10003800630E0F01D76EC00E0F01D66E320E00018F
:10004800026ED58EF3D861D9030E0F01F76ED90E63
:100058000F01F66E0BD9030E0F01F76EE30E0F01B9
:10006800F66E04D9320E0001026E200E0F01836E67
:100078005DD9320E0001026E400E0F01836E56D913
:10008800320E0001026E800E0F01836E4FD9836A13
:10009800E86A0A0E00010E6E7D0E0001036E0A0E5C
:1000A8000001046E050E00010B6E000E0001006ECB
:1000B800010E0001016EC30E0001056E310E000134
:1000C800066E076AC50E0001086E300E0001096E43
:1000D8000A6AFC0E0F01D76EEB0E0F01D66E000EEA
:1000E80000011B6E350E00011A6E0C0E0001196E10
:1000F800000E0001186ED40E0001176E300E0001BC
:10010800166EA00E00011E6E0F0E00011D6E000E71
:1001180000011C6EE00E0001216E280E0001206E09
:10012800010E00011F6E020E0F01CD6E020E0F01AF
:10013800B16E0A0E0F01BB6E0A0E0F014E6F0F0152
:10014800080E0F012D6FD08E9F90A292A592A594B4
:10015800126A136A300E0001146E010E0001156E4A
:10016800D59E9D80A082A382A384F28CF28ECD803E
:10017800B18012001100D8CF10F00F6EE0CF11F04F
:10018800A4A202D013D8FCD7A4A402D02CD8F8D7A4
:100198009EA002D045D8F4D7A1A202D044D8F0D767
:1001A8000F5010C0D8FF11C0E0FF10009EA004D06F
:1001B800BDBE02D0122A9E901250145C12E18C78B7
:1001C8008CA808D000D01B50BC261A50BD2219504C
:1001D800142207D01850BC261750BD2216501422DE
:1001E80000D0A4921200A1A204D050BF02D0132ABA
:1001F800A1921350155C12E18B748BA408D000D027
:100208001E504F261D5050221C50152207D0215039
:100218004F27205050231F50152200D0A4941200BD
:10022800122A9E901200132AA19212000A0E0001AF
:10023800026E75D8030E0F01F76ED20E0F01F66E1F
:1002480008008A6A8A8AF550F00BE83881108A6EAD
:100258008A9A5BD88A6A8A8AF5500F0B81108A6E4F
:100268008A9A53D80B00F552ECE112008A980800DC
:10027800F55201E10B00F00E8A168A8AF550F00B50
:10028800E83881108A6E8A9AF00E8A168A8AF550A2
:100298000F0B81108A6E8A9A33D88A880B00F55220
:1002A800EAE112008A98F00E8A168A8AEF50F00B5B
:1002B800E83881108A6E8A9AF00E8A168A8AEF5078
:1002C8000F0B81108A6E8A9A1BD88A88EC50EBE152
:1002D80012000150300F066E00EE05F0E3DF00500B
:1002E800300F096E00EE08F0DDDF57D8F2A4FED714
:1002F800FC0E0F01D76EE00E0F01D66EF2941200BD
:10030800410E0E6E0E06FEE11200F2A4FED7630E39
:100318000F01D76EC00E0F01D66EF2941200F5DFF2
:100328000206FDE1640E0001026E1200EEDF020615
:10033800FDE11200010E00010C6E0150020A0EE0F0
:10034800020E0024006E0A0A01E01200000E0001ED
:10035800006E020E0001016EE86A1200000E000134
:10036800006E010E0001016EE86A12000B0601E042
:1003780012008B74050E01020050E840F324F36A62
:1003880082A405D00B6E000E00010D6E12006408E9
:100398000B6E010E00010D6E1200032E1200640E8A
:1003A8000001036E042E12000A0E0001046E8C7800
:1003B8008CA8280E0001046E12000CA012000DA0DB
:1003C8001200000E00010C6E84D7333228010C068F
:1003D80000804153454E3530363700C050573D31C7
:0603E8002E30306D7300A1
:020000040030CA
:070000001D036A00B98B919A
:06000800FFC0FFE0FF4015
:00000001FF
