:0600000000000EEF00F00D
:04000800B7EF00F05E
:10001800B8EF00F001D8FFD7836A956A826A946ABC
:10002800816AC00E0F01936EF26A080E0F01D56E39
:10003800630E0F01D76EC00E0F01D66E320E00018F
:10004800026ED58ED9D847D9030E0F01F76EA50ECB
:100058000F01F66EF1D8030E0F01F76EAF0E0F0108
:10006800F66EEAD8320E0001026E200E0F01836E82
:1000780043D9320E0001026E400E0F01836E3CD947
:10008800320E0001026E800E0F01836E35D9836A2D
:10009800E86A0A0E00010E6E7D0E0001036E0A0E5C
:1000A8000001046E050E00010B6E000E0001006ECB
:1000B800010E0001016EC30E0001056E310E000134
:1000C800066E076AC50E0001086E300E0001096E43
:1000D8000A6AFC0E0F01D76EEB0E0F01D66E000EEA
:1000E80000011A6E350E0001196E0C0E0001186E13
:1000F800000E0001176ED40E0001166E300E0001BE
:10010800156EA00E00011D6E0F0E00011C6E000E74
:1001180000011B6EE00E0001206E280E00011F6E0C
:10012800010E00011E6E020E0F01CD6E0A0E0F01A8
:10013800BB6E0A0E0F014E6E0F01000E0F012D6FE0
:10014800D08E9F90A592A594126A300E0001136E6E
:10015800010E0001146ED59EA382A3849D80F28CAB
:10016800F28ECD8012001100D8CF10F00F6EE0CFC4
:1001780011F0A4A202D00FD8FCD7A4A402D022D890
:10018800F8D79EA002D035D8F4D70F5010C0D8FFAA
:1001980011C0E0FF10001250135C12E18C788CA89B
:1001A80008D000D01A50BC261950BD22185013226E
:1001B80007D01750BC261650BD221550132200D068
:1001C800A49212001250145C12E18B748BA408D014
:1001D80000D01D504F261C5050221B50142207D00F
:1001E80020504F261F5050221E50142200D0A49495
:1001F8001200122A9E9012000A0E0001026E75D893
:10020800030E0F01F76E9E0E0F01F66E08008A6A44
:100218008A8AF550F00BE83881108A6E8A9A5BD882
:100228008A6A8A8AF5500F0B81108A6E8A9A53D887
:100238000B00F552ECE112008A980800F55201E132
:100248000B00F00E8A168A8AF550F00BE8388110F8
:100258008A6E8A9AF00E8A168A8AF5500F0B8110D8
:100268008A6E8A9A33D88A880B00F552EAE112001E
:100278008A98F00E8A168A8AEF50F00BE8388110B7
:100288008A6E8A9AF00E8A168A8AEF500F0B8110AE
:100298008A6E8A9A1BD88A88EC50EBE112000150CA
:1002A800300F066E00EE05F0E3DF0050300F096EE8
:1002B80000EE08F0DDDF57D8F2A4FED7FC0E0F01E0
:1002C800D76EE00E0F01D66EF2941200410E0E6E3C
:1002D8000E06FEE11200F2A4FED7630E0F01D76EE0
:1002E800C00E0F01D66EF2941200F5DF0206FDE192
:1002F800640E0001026E1200EEDF0206FDE112003C
:10030800010E00010C6E0150020A0EE0020E0024DC
:10031800006E0A0A01E01200000E0001006E020ED3
:100328000001016EE86A1200000E0001006E010E65
:100338000001016EE86A12000B0601E012008B74DE
:10034800050E01020050E840F324F36A82A405D0A8
:100358000B6E000E00010D6E120064080B6E010E8C
:1003680000010D6E1200032E1200640E0001036ED0
:10037800042E12000A0E0001046E8C788CA8280E38
:100388000001046E12000CA012000DA01200000E55
:1003980000010C6E84D7333228010C0600804153CB
:1003A800454E3530363700C050573D312E30306D10
:0203B8007300D0
:020000040030CA
:070000001D036A00B98B919A
:06000800FFC0FFE0FF4015
:00000001FF
