:0600000000000EEF00F00D
:04000800CAEF00F04B
:10001800CBEF00F003D8A9D915D9FDD7836A030E11
:100028000F01956E826A946A816AC00E0F01936E01
:10003800F26A080E0F01D56E630E0F01D76EC00E5F
:100048000F01D66E320E0001026ED58E1FD995D9DA
:10005800040E0F01F76E0B0E0F01F66E37D9040E62
:100068000F01F76E150E0F01F66E30D9320E000132
:10007800026E200E0F01836E91D9320E0001026EBE
:10008800400E0F01836E8AD9320E0001026E800E77
:100098000F01836E83D9836AE86A0A0E00010E6E27
:1000A8007D0E0001036E0A0E0001046E050E0001AC
:1000B8000B6E000E0001006E010E0001016EC30EF2
:1000C8000001056E310E0001066E076AC50E0001BB
:1000D800086E300E0001096E0A6AC60E0001256E10
:1000E800300E0001266E276AFC0E0F01D76EEB0E4C
:1000F8000F01D66E000E00011B6E350E00011A6E40
:100108000C0E0001196E000E0001186ED40E0001CD
:10011800176E300E0001166EA00E00011E6E0F0E37
:1001280000011D6E000E00011C6EE00E0001216E24
:10013800280E0001206E010E00011F6E020E0F0135
:10014800CD6E020E0F01B16E0A0E0F01BB6E0A0EC4
:100158000F014E6F080E0F012D6FD08E9F90A29247
:10016800A592A594126A136A300E0001146E010E4E
:100178000001156E83CF24F00F019D80A082A38219
:10018800A384F28CF28ECD80B18012001100D8CFFA
:1001980010F00F6EE0CF11F0A4A202D013D8FCD754
:1001A800A4A402D02CD8F8D79EA002D045D8F4D762
:1001B800A1A202D044D8F0D70F5010C0D8FF11C068
:1001C800E0FF10009EA004D0BDBE02D0122A9E906F
:1001D8001250145C12E18C788CA808D000D01B5007
:1001E800BC261A50BD221950142207D01850BC261C
:1001F8001750BD221650142200D0A4921200A1A2BA
:1002080004D050BF02D0132AA1921350155C12E1FA
:100218008B748BA408D000D01E504F271D5050233C
:100228001C50152207D021504F27205050231F5013
:10023800152200D0A4941200122A9E901200132AAC
:10024800A1921200226A8350236E2418030B0BE03C
:10025800243002E3E89201D0E8822318030B02E17C
:10026800220601D0222A23C024F000502224D2E6FC
:10027800006E630807E61200010E011601B0006A5D
:10028800016E1200006A020E016E12000A0E0001D1
:10029800026E7DD8040E0F01F76E040E0F01F66E84
:1002A80008008A6A8A8AF550F00BE83881108A6E4D
:1002B8008A9A63D88A6A8A8AF5500F0B81108A6EE7
:1002C8008A9A5BD80B00F552ECE112008A98080074
:1002D800F55201E10B00F00E8A168A8AF550F00BF0
:1002E800E83881108A6E8A9AF00E8A168A8AF55042
:1002F8000F0B81108A6E8A9A3BD88A880B00F552B8
:10030800EAE112008A98F00E8A168A8AEF50F00BFA
:10031800E83881108A6E8A9AF00E8A168A8AEF5017
:100328000F0B81108A6E8A9A23D88A88EC50EBE1E9
:1003380012000150300F066E00EE05F0E3DF0050AA
:10034800096A0A0E00C026F0265E02E6092AFCD7D2
:100358000A0E2626300E092600EE08F0D3DF300EEE
:10036800262600EE25F0CEDF12002250E2E1120030
:10037800410E0E6E0E06FEE11200F2A4FED7630EC9
:100388000F01D76EC00E0F01D66EF2941200F5DF82
:100398000206FDE1640E0001026E1200EEDF0206A5
:1003A800FDE112000150020A0CE0010E0024006E6B
:1003B800A00A01E01200000E006E020E016EE86A4B
:1003C8001200000E006E010E016EE86A12000B06A4
:1003D80001E012008B74050E01020050E840F3247E
:1003E800F36A82A405D00B6E000E00010D6E120098
:1003F80064080B6E010E00010D6E120033322801E5
:100408000C0600804153454E3530363700C05057F2
:080418003D312E30306D730000
:020000040030CA
:070000001D036A00B98B919A
:06000800FFC0FFE0FF4015
:00000001FF
