:0600000000000EEF00F00D
:0400080004EF00F011
:100018000CEF00F009D87BD86FD864D804C000F082
:1000280005C001F03FD8F7D7836A0B0E0F01956E14
:10003800886A000E0F019A6E280E0001026E010EEA
:100048000001036E02C006F003C007F0200E0F0186
:10005800836E06C002F007C003F02CD8400E0F01D3
:10006800836E06C002F007C003F024D8800E0F018B
:10007800836E06C002F007C003F01CD8836AE86AE2
:1000880083CF08F0010E00010B6E010E00010C6E0B
:10009800820E0001046E050E0001056E010E0001BE
:1000A8000A6E12000006FEE104C000F00106FAE143
:1000B800006A1200840E0001006EFA0E0001016E43
:1000C80000C004F0EFDF0206F5E106C002F0030607
:1000D800F1E1120083CFE8FF080B096E0818081435
:1000E80009E11ED883CFE8FF030BE844E844916E8A
:1000F800E86A12008C7414D80A06ECE012008C78B6
:10010800640E00010B6E140E00010C6E12000B063B
:1001180001E012000C06F3E0640E00010B6E120001
:10012800040E00010A6E09C008F0096AE86A1200A4
:020000040030CA
:070000001D036A00B98B919A
:06000800FFC0FFE0FF4015
:00000001FF
