:0600000000000EEF00F00D
:0400080004EF00F011
:100018000CEF00F001D8FFD7836A030E0F01956E2D
:10002800886A000E0F019A6E200E0F01836E640E0F
:100038000001036E050E0001046E03C006F00BD824
:10004800000E0F01836E12000006FEE105C000F0ED
:100058000106FAE11200FF0E0001006E0D0E00010C
:10006800016E00C005F0F0DF0306F5E106C003F0FD
:0A0078000406F1E11200120012006C
:020000040030CA
:070000001D036A00B98B919A
:06000800FFC0FFE0FF4015
:00000001FF
